{
  "address": "0x469F9Dbd1A1DD8102eD8dA2a4f5C76e255938ce7",
  "abi": [
    {
      "inputs": [],
      "stateMutability": "nonpayable",
      "type": "constructor"
    },
    {
      "inputs": [],
      "name": "Donations__DonationFailed",
      "type": "error"
    },
    {
      "inputs": [],
      "name": "Donations__InvalidDeadline",
      "type": "error"
    },
    {
      "inputs": [
        {
          "internalType": "address",
          "name": "_owner",
          "type": "address"
        },
        {
          "internalType": "string",
          "name": "_title",
          "type": "string"
        },
        {
          "internalType": "string",
          "name": "_description",
          "type": "string"
        },
        {
          "internalType": "uint256",
          "name": "_target",
          "type": "uint256"
        },
        {
          "internalType": "uint256",
          "name": "_deadline",
          "type": "uint256"
        },
        {
          "internalType": "string",
          "name": "_image",
          "type": "string"
        }
      ],
      "name": "createCampaign",
      "outputs": [],
      "stateMutability": "nonpayable",
      "type": "function"
    },
    {
      "inputs": [
        {
          "internalType": "uint256",
          "name": "_id",
          "type": "uint256"
        }
      ],
      "name": "donateCampaign",
      "outputs": [],
      "stateMutability": "payable",
      "type": "function"
    },
    {
      "inputs": [],
      "name": "getAllCampaigns",
      "outputs": [
        {
          "components": [
            {
              "internalType": "address",
              "name": "i_owner",
              "type": "address"
            },
            {
              "internalType": "string",
              "name": "title",
              "type": "string"
            },
            {
              "internalType": "uint256",
              "name": "deadline",
              "type": "uint256"
            },
            {
              "internalType": "string",
              "name": "description",
              "type": "string"
            },
            {
              "internalType": "uint256",
              "name": "target",
              "type": "uint256"
            },
            {
              "internalType": "uint256",
              "name": "amountCollected",
              "type": "uint256"
            },
            {
              "internalType": "string",
              "name": "image",
              "type": "string"
            },
            {
              "internalType": "address[]",
              "name": "donators",
              "type": "address[]"
            },
            {
              "internalType": "uint256[]",
              "name": "donations",
              "type": "uint256[]"
            }
          ],
          "internalType": "struct Donations.Campaign[]",
          "name": "",
          "type": "tuple[]"
        }
      ],
      "stateMutability": "view",
      "type": "function"
    },
    {
      "inputs": [
        {
          "internalType": "uint256",
          "name": "_id",
          "type": "uint256"
        }
      ],
      "name": "getDonatorsAndDonations",
      "outputs": [
        {
          "internalType": "address[]",
          "name": "",
          "type": "address[]"
        },
        {
          "internalType": "uint256[]",
          "name": "",
          "type": "uint256[]"
        }
      ],
      "stateMutability": "view",
      "type": "function"
    },
    {
      "inputs": [],
      "name": "getNumberOfCampaigns",
      "outputs": [
        {
          "internalType": "uint256",
          "name": "",
          "type": "uint256"
        }
      ],
      "stateMutability": "view",
      "type": "function"
    }
  ],
  "transactionHash": "0x64f940dfe030c833ca3d12b8c4f1e5af130e33d9631bd51255121cc5a55b901d",
  "args": [],
  "numDeployments": 1,
  "solcInputHash": "ba609a5bfcac315d69ab23ddba22131f",
  "bytecode": "0x608060405234801561001057600080fd5b50600080819055506115bf806100276000396000f3fe60806040526004361061004a5760003560e01c806386cdf6041461004f5780638ffff8b01461007a5780639943e3a114610096578063e4aafc2c146100bf578063faed95a8146100ea575b600080fd5b34801561005b57600080fd5b50610064610128565b6040516100719190610ff9565b60405180910390f35b610094600480360381019061008f919061105b565b6104f8565b005b3480156100a257600080fd5b506100bd60048036038101906100b891906111e9565b610692565b005b3480156100cb57600080fd5b506100d4610a91565b6040516100e191906112d9565b60405180910390f35b3480156100f657600080fd5b50610111600480360381019061010c919061105b565b610a9a565b60405161011f9291906113d2565b60405180910390f35b60606000805467ffffffffffffffff811115610147576101466110be565b5b60405190808252806020026020018201604052801561018057816020015b61016d610bac565b8152602001906001900390816101655790505b50905060005b6000548110156104f05760016000828152602001908152602001600020604051806101200160405290816000820160009054906101000a900473ffffffffffffffffffffffffffffffffffffffff1673ffffffffffffffffffffffffffffffffffffffff1673ffffffffffffffffffffffffffffffffffffffff16815260200160018201805461021590611438565b80601f016020809104026020016040519081016040528092919081815260200182805461024190611438565b801561028e5780601f106102635761010080835404028352916020019161028e565b820191906000526020600020905b81548152906001019060200180831161027157829003601f168201915b50505050508152602001600282015481526020016003820180546102b190611438565b80601f01602080910402602001604051908101604052809291908181526020018280546102dd90611438565b801561032a5780601f106102ff5761010080835404028352916020019161032a565b820191906000526020600020905b81548152906001019060200180831161030d57829003601f168201915b50505050508152602001600482015481526020016005820154815260200160068201805461035790611438565b80601f016020809104026020016040519081016040528092919081815260200182805461038390611438565b80156103d05780601f106103a5576101008083540402835291602001916103d0565b820191906000526020600020905b8154815290600101906020018083116103b357829003601f168201915b505050505081526020016007820180548060200260200160405190810160405280929190818152602001828054801561045e57602002820191906000526020600020905b8160009054906101000a900473ffffffffffffffffffffffffffffffffffffffff1673ffffffffffffffffffffffffffffffffffffffff1681526020019060010190808311610414575b50505050508152602001600882018054806020026020016040519081016040528092919081815260200182805480156104b657602002820191906000526020600020905b8154815260200190600101908083116104a2575b5050505050815250508282815181106104d2576104d1611469565b5b602002602001018190525080806104e8906114c7565b915050610186565b508091505090565b600034905060006001600084815260200190815260200160002090508060080182908060018154018082558091505060019003906000526020600020016000909190919091505580600701339080600181540180825580915050600190039060005260206000200160009091909190916101000a81548173ffffffffffffffffffffffffffffffffffffffff021916908373ffffffffffffffffffffffffffffffffffffffff16021790555060008160000160009054906101000a900473ffffffffffffffffffffffffffffffffffffffff1673ffffffffffffffffffffffffffffffffffffffff16836040516105ee90611540565b60006040518083038185875af1925050503d806000811461062b576040519150601f19603f3d011682016040523d82523d6000602084013e610630565b606091505b50509050801561065a578282600501600082825461064e9190611555565b9250508190555061068c565b6040517f3d3cd94a00000000000000000000000000000000000000000000000000000000815260040160405180910390fd5b50505050565b428210156106cb576040517e127c3400000000000000000000000000000000000000000000000000000000815260040160405180910390fd5b60006001600080548152602001908152602001600020604051806101200160405290816000820160009054906101000a900473ffffffffffffffffffffffffffffffffffffffff1673ffffffffffffffffffffffffffffffffffffffff1673ffffffffffffffffffffffffffffffffffffffff16815260200160018201805461075390611438565b80601f016020809104026020016040519081016040528092919081815260200182805461077f90611438565b80156107cc5780601f106107a1576101008083540402835291602001916107cc565b820191906000526020600020905b8154815290600101906020018083116107af57829003601f168201915b50505050508152602001600282015481526020016003820180546107ef90611438565b80601f016020809104026020016040519081016040528092919081815260200182805461081b90611438565b80156108685780601f1061083d57610100808354040283529160200191610868565b820191906000526020600020905b81548152906001019060200180831161084b57829003601f168201915b50505050508152602001600482015481526020016005820154815260200160068201805461089590611438565b80601f01602080910402602001604051908101604052809291908181526020018280546108c190611438565b801561090e5780601f106108e35761010080835404028352916020019161090e565b820191906000526020600020905b8154815290600101906020018083116108f157829003601f168201915b505050505081526020016007820180548060200260200160405190810160405280929190818152602001828054801561099c57602002820191906000526020600020905b8160009054906101000a900473ffffffffffffffffffffffffffffffffffffffff1673ffffffffffffffffffffffffffffffffffffffff1681526020019060010190808311610952575b50505050508152602001600882018054806020026020016040519081016040528092919081815260200182805480156109f457602002820191906000526020600020905b8154815260200190600101908083116109e0575b505050505081525050905086816000019073ffffffffffffffffffffffffffffffffffffffff16908173ffffffffffffffffffffffffffffffffffffffff16815250508581602001819052508481606001819052508381608001818152505082816040018181525050818160c0018190525060008160a0018181525050600080815480929190610a83906114c7565b919050555050505050505050565b60008054905090565b606080600160008481526020019081526020016000206007016001600085815260200190815260200160002060080181805480602002602001604051908101604052809291908181526020018280548015610b4a57602002820191906000526020600020905b8160009054906101000a900473ffffffffffffffffffffffffffffffffffffffff1673ffffffffffffffffffffffffffffffffffffffff1681526020019060010190808311610b00575b5050505050915080805480602002602001604051908101604052809291908181526020018280548015610b9c57602002820191906000526020600020905b815481526020019060010190808311610b88575b5050505050905091509150915091565b604051806101200160405280600073ffffffffffffffffffffffffffffffffffffffff16815260200160608152602001600081526020016060815260200160008152602001600081526020016060815260200160608152602001606081525090565b600081519050919050565b600082825260208201905092915050565b6000819050602082019050919050565b600073ffffffffffffffffffffffffffffffffffffffff82169050919050565b6000610c6582610c3a565b9050919050565b610c7581610c5a565b82525050565b600081519050919050565b600082825260208201905092915050565b60005b83811015610cb5578082015181840152602081019050610c9a565b60008484015250505050565b6000601f19601f8301169050919050565b6000610cdd82610c7b565b610ce78185610c86565b9350610cf7818560208601610c97565b610d0081610cc1565b840191505092915050565b6000819050919050565b610d1e81610d0b565b82525050565b600081519050919050565b600082825260208201905092915050565b6000819050602082019050919050565b6000610d5c8383610c6c565b60208301905092915050565b6000602082019050919050565b6000610d8082610d24565b610d8a8185610d2f565b9350610d9583610d40565b8060005b83811015610dc6578151610dad8882610d50565b9750610db883610d68565b925050600181019050610d99565b5085935050505092915050565b600081519050919050565b600082825260208201905092915050565b6000819050602082019050919050565b6000610e0b8383610d15565b60208301905092915050565b6000602082019050919050565b6000610e2f82610dd3565b610e398185610dde565b9350610e4483610def565b8060005b83811015610e75578151610e5c8882610dff565b9750610e6783610e17565b925050600181019050610e48565b5085935050505092915050565b600061012083016000830151610e9b6000860182610c6c565b5060208301518482036020860152610eb38282610cd2565b9150506040830151610ec86040860182610d15565b5060608301518482036060860152610ee08282610cd2565b9150506080830151610ef56080860182610d15565b5060a0830151610f0860a0860182610d15565b5060c083015184820360c0860152610f208282610cd2565b91505060e083015184820360e0860152610f3a8282610d75565b915050610100830151848203610100860152610f568282610e24565b9150508091505092915050565b6000610f6f8383610e82565b905092915050565b6000602082019050919050565b6000610f8f82610c0e565b610f998185610c19565b935083602082028501610fab85610c2a565b8060005b85811015610fe75784840389528151610fc88582610f63565b9450610fd383610f77565b925060208a01995050600181019050610faf565b50829750879550505050505092915050565b600060208201905081810360008301526110138184610f84565b905092915050565b6000604051905090565b600080fd5b600080fd5b61103881610d0b565b811461104357600080fd5b50565b6000813590506110558161102f565b92915050565b60006020828403121561107157611070611025565b5b600061107f84828501611046565b91505092915050565b61109181610c5a565b811461109c57600080fd5b50565b6000813590506110ae81611088565b92915050565b600080fd5b600080fd5b7f4e487b7100000000000000000000000000000000000000000000000000000000600052604160045260246000fd5b6110f682610cc1565b810181811067ffffffffffffffff82111715611115576111146110be565b5b80604052505050565b600061112861101b565b905061113482826110ed565b919050565b600067ffffffffffffffff821115611154576111536110be565b5b61115d82610cc1565b9050602081019050919050565b82818337600083830152505050565b600061118c61118784611139565b61111e565b9050828152602081018484840111156111a8576111a76110b9565b5b6111b384828561116a565b509392505050565b600082601f8301126111d0576111cf6110b4565b5b81356111e0848260208601611179565b91505092915050565b60008060008060008060c0878903121561120657611205611025565b5b600061121489828a0161109f565b965050602087013567ffffffffffffffff8111156112355761123461102a565b5b61124189828a016111bb565b955050604087013567ffffffffffffffff8111156112625761126161102a565b5b61126e89828a016111bb565b945050606061127f89828a01611046565b935050608061129089828a01611046565b92505060a087013567ffffffffffffffff8111156112b1576112b061102a565b5b6112bd89828a016111bb565b9150509295509295509295565b6112d381610d0b565b82525050565b60006020820190506112ee60008301846112ca565b92915050565b600082825260208201905092915050565b600061131082610d24565b61131a81856112f4565b935061132583610d40565b8060005b8381101561135657815161133d8882610d50565b975061134883610d68565b925050600181019050611329565b5085935050505092915050565b600082825260208201905092915050565b600061137f82610dd3565b6113898185611363565b935061139483610def565b8060005b838110156113c55781516113ac8882610dff565b97506113b783610e17565b925050600181019050611398565b5085935050505092915050565b600060408201905081810360008301526113ec8185611305565b905081810360208301526114008184611374565b90509392505050565b7f4e487b7100000000000000000000000000000000000000000000000000000000600052602260045260246000fd5b6000600282049050600182168061145057607f821691505b60208210810361146357611462611409565b5b50919050565b7f4e487b7100000000000000000000000000000000000000000000000000000000600052603260045260246000fd5b7f4e487b7100000000000000000000000000000000000000000000000000000000600052601160045260246000fd5b60006114d282610d0b565b91507fffffffffffffffffffffffffffffffffffffffffffffffffffffffffffffffff820361150457611503611498565b5b600182019050919050565b600081905092915050565b50565b600061152a60008361150f565b91506115358261151a565b600082019050919050565b600061154b8261151d565b9150819050919050565b600061156082610d0b565b915061156b83610d0b565b925082820190508082111561158357611582611498565b5b9291505056fea264697066735822122007d6520b2199729f0bc555aa6ee6b6b2cb33e2c8da685fe831710dc913c3500664736f6c63430008130033",
  "devdoc": {
    "kind": "dev",
    "methods": {},
    "version": 1
  },
  "userdoc": {
    "kind": "user",
    "methods": {},
    "version": 1
  },
  "storageLayout": {
    "storage": [
      {
        "astId": 28,
        "contract": "contracts/Donations.sol:Donations",
        "label": "s_numberOfCampaigns",
        "offset": 0,
        "slot": "0",
        "type": "t_uint256"
      },
      {
        "astId": 33,
        "contract": "contracts/Donations.sol:Donations",
        "label": "campaigns",
        "offset": 0,
        "slot": "1",
        "type": "t_mapping(t_uint256,t_struct(Campaign)26_storage)"
      }
    ],
    "types": {
      "t_address": {
        "encoding": "inplace",
        "label": "address",
        "numberOfBytes": "20"
      },
      "t_array(t_address)dyn_storage": {
        "base": "t_address",
        "encoding": "dynamic_array",
        "label": "address[]",
        "numberOfBytes": "32"
      },
      "t_array(t_uint256)dyn_storage": {
        "base": "t_uint256",
        "encoding": "dynamic_array",
        "label": "uint256[]",
        "numberOfBytes": "32"
      },
      "t_mapping(t_uint256,t_struct(Campaign)26_storage)": {
        "encoding": "mapping",
        "key": "t_uint256",
        "label": "mapping(uint256 => struct Donations.Campaign)",
        "numberOfBytes": "32",
        "value": "t_struct(Campaign)26_storage"
      },
      "t_string_storage": {
        "encoding": "bytes",
        "label": "string",
        "numberOfBytes": "32"
      },
      "t_struct(Campaign)26_storage": {
        "encoding": "inplace",
        "label": "struct Donations.Campaign",
        "members": [
          {
            "astId": 7,
            "contract": "contracts/Donations.sol:Donations",
            "label": "i_owner",
            "offset": 0,
            "slot": "0",
            "type": "t_address"
          },
          {
            "astId": 9,
            "contract": "contracts/Donations.sol:Donations",
            "label": "title",
            "offset": 0,
            "slot": "1",
            "type": "t_string_storage"
          },
          {
            "astId": 11,
            "contract": "contracts/Donations.sol:Donations",
            "label": "deadline",
            "offset": 0,
            "slot": "2",
            "type": "t_uint256"
          },
          {
            "astId": 13,
            "contract": "contracts/Donations.sol:Donations",
            "label": "description",
            "offset": 0,
            "slot": "3",
            "type": "t_string_storage"
          },
          {
            "astId": 15,
            "contract": "contracts/Donations.sol:Donations",
            "label": "target",
            "offset": 0,
            "slot": "4",
            "type": "t_uint256"
          },
          {
            "astId": 17,
            "contract": "contracts/Donations.sol:Donations",
            "label": "amountCollected",
            "offset": 0,
            "slot": "5",
            "type": "t_uint256"
          },
          {
            "astId": 19,
            "contract": "contracts/Donations.sol:Donations",
            "label": "image",
            "offset": 0,
            "slot": "6",
            "type": "t_string_storage"
          },
          {
            "astId": 22,
            "contract": "contracts/Donations.sol:Donations",
            "label": "donators",
            "offset": 0,
            "slot": "7",
            "type": "t_array(t_address)dyn_storage"
          },
          {
            "astId": 25,
            "contract": "contracts/Donations.sol:Donations",
            "label": "donations",
            "offset": 0,
            "slot": "8",
            "type": "t_array(t_uint256)dyn_storage"
          }
        ],
        "numberOfBytes": "288"
      },
      "t_uint256": {
        "encoding": "inplace",
        "label": "uint256",
        "numberOfBytes": "32"
      }
    }
  }
}